:100000000C948A010C94D1010C94D1010C94D1016F
:100010000C94D1010C94D1010C94D1010C94D10118
:100020000C94D1010C94D1010C94871F0C945B208B
:100030000C94F71A0C94D1010C94D1010C94D101B9
:100040000C94D1010C94D1010C94D1010C94D101E8
:100050000C94D1010C944E1B0C94D1010C94D10141
:100060000C94D1010C94D1010C94D1010C94D101C8
:100070000C94D1010C94D1010C94D1010C94D101B8
:100080000C94D1010C94D1010C94D1010C94D101A8
:100090000C94D1010C94D1010C94D1010C94D10198
:1000A0000C94D1010C94D1010C94D1012B001400BB
:1000B0001A00080015001700E000040016000700F1
:1000C00009000A00E1001D001B00060019000500E0
:1000D0001C0018000C00120013002A000B000D0079
:1000E0000E000F00330034001100100036003700FE
:1000F00038002872E20001512C000251E700000094
:1001000001001E021F0220022102220201002D0214
:100110002E022F023002310201002900E300E2002A
:1001200039003402230224022502260227024C0051
:100130005000510052004F00350035024A004D007A
:100140004B004E0046002C72010001002800010007
:100150000100000001001E001F00200021002200FD
:1001600001002D002E002F00300031000100290079
:10017000E700E600390034002300240025002600B3
:1001800027004C003A003B003C003D003E003F0091
:1001900040004100420043004400450001000100CE
:1001A0002A00010001000000CA5CC85CC65CC45C97
:1001B0000000C35CCB5CC95CC75CC55C0000000090
:1001C000000000000000000000000000000000002F
:1001D000000000000000000000000000000000001F
:1001E00000000000005C00000000000000000000B3
:1001F000010001000000010001000000180365007B
:10020000640069006E00620075007200670068009B
:10021000340031000000220373006300680077009F
:10022000610072007A00650072002D0067006500B1
:1002300069006700650072000000040309040902F8
:100240003B00020100A0FA090400000103010100C3
:100250000921110100012240000705810308000A5D
:10026000090401000103000000092111010001221D
:1002700049000705820320000A1201000200000065
:1002800008EDFE000001000102000105010902A1C4
:100290000185020901A10005091901290815002598
:1002A0000195087501810205010930093115812583
:1002B0007F95027508810609381581257F9501759E
:1002C000088106050C0A38021581257F95017508FD
:1002D0008106C0C005010906A101050719E029E74B
:1002E00015002501950875018102950175088101A8
:1002F0000507190029FF150026FF009506750881DE
:1003000000050819012905950575019102950175EA
:10031000039101C011241FBECFEFDAE0DEBFCDBFD5
:1003200004B603FE27C08091190290911A02A09191
:100330001B02B0911C028730904BA740B04BD1F408
:100340001092190210921A0210921B0210921C02B3
:1003500014BE84B7877F84BF0FB6F894A8958091A8
:100360006000886180936000109260000FBEE0E042
:10037000F8E3099511E0A0E0B1E0E0E6F5E402C0A1
:1003800005900D92A832B107D9F722E0A8E2B1E0BA
:1003900001C01D92A931B207E1F70E9490140C949C
:1003A0008A220C940000873901F178F48633F9F041
:1003B00030F48433F1F08533F1F08FE1089584391E
:1003C000E1F08639D1F781E20895843FC1F030F43D
:1003D000803FB9F0813F89F781E00895863F99F029
:1003E000A0F0873F51F787E0089582E2089585E203
:1003F000089583E2089584E2089580E2089584E0F8
:10040000089580E0089586E0089585E0089596E8CF
:1004100090937A00982F9072906890937B008F71E0
:1004200090910001892B80937C0080917A008064F8
:1004300080937A0080917A0086FDFCCF80917800CD
:100440002091790090917A009F7790937A00922F73
:1004500008950E94D3010C940702282F882329F0C5
:10046000269F212D1124822F0895269F212D1124AE
:10047000822F819508951092F7011092F601109243
:10048000F5011092F4011092D90108950E942902F9
:10049000811522E092070CF40396925097FD039683
:1004A000959587959595879508958093D901089599
:1004B000CF93DF93CDB7DEB728970FB6F894DEBFA2
:1004C0000FBECDBF29833A834B835C836D837E83CC
:1004D0008F83988788E0FE013196A2EEB1E001900B
:1004E0000D928A95E1F728960FB6F894DEBF0FBEFD
:1004F000CDBFDF91CF9108950F931F93CF93DF93DB
:10050000182F682F880F770B072F77FF03C071957F
:100510006195710980E0611185E0660F0E942D02EE
:1005200021E030E0111614F030E020E0C02FCC1FA5
:10053000CC27CC1F90E0D92F2C1B3D0B829F802D08
:100540001124DF91CF911F910F9108950F931F9365
:10055000CF93DF93182F682F880F770B072F77FF24
:1005600003C071956195710980E0611182E0660FA9
:100570000E942D0221E030E0111614F030E020E05E
:10058000C02FCC1FCC27CC1F90E0D92F2C1B3D0BAC
:10059000829F802D1124DF91CF911F910F9108959B
:1005A0000F931F93CF93DF93FB01EC019B0177FF28
:1005B00004C022273327261B370B522F8C01D7FF6D
:1005C00004C000271127081B190BA02F402F80E023
:1005D000051710F4852F40E0480F201B330B37FF21
:1005E00003C0319521953109442341F0D7FF06C05E
:1005F00061E0283731051CF0A51708F460E0617050
:10060000442349F01C161D0634F481E028373105D7
:100610001CF0A51708F480E08170442341F0F7FF37
:1006200006C091E0283731051CF0A51708F090E0CE
:100630009170442349F01E161F0634F471E02837E8
:1006400031051CF0A51708F070E07170DF91CF91B3
:100650001F910F910895CF93DF930E94271B9093D2
:10066000F7018093F60185E30E944602C9EDD1E0CF
:10067000082E000C990B9A83898386E30E94460218
:10068000082E000C990B9C838B83DF91CF910895EA
:100690008091D901813091F0882319F0823009F1DD
:1006A00008958091DA010E947C028093F00180918C
:1006B000DC010E947C028093F10108956091DA01CF
:1006C0007091DB018091DC019091DD010E94D002EC
:1006D0006093DE017093DF018093E0019093E1016C
:1006E00008958091DA010E94A6028093F30180911F
:1006F000DC010E94A6028093F2010895641729F09C
:1007000041110C9489040C94A0040895FC0180917B
:10071000D901813069F0882321F0823009F441C089
:1007200008958091F00182838091F101838308957F
:100730004091DE016091EA018091E2019091E30134
:100740000E947E034091E0016091EC018091E40100
:100750009091E5010E947E034091E1016091ED01DD
:100760008091E6019091E7010E947E034091DF01B4
:100770006091EB018091E8019091E9010E947E0374
:100780008091DE019091DF01A091E001B091E10143
:100790008093EA019093EB01A093EC01B093ED01FB
:1007A00008958091F30185838091F201819584837E
:1007B00008950C943B02CF93DF9300D000D000D07B
:1007C000CDB7DEB78091F6019091F7010E943F1BF3
:1007D0000B97D0F00E94971729833A834B835C8351
:1007E0006D837E830E942B030E944803CE010196F5
:1007F0000E94860349815A816B817C818D819E8113
:100800000E94B8170E945D1726960FB6F894DEBFB7
:100810000FBECDBFDF91CF910895CF92DF92EF92BF
:10082000FF92CF93DF93CDB7DEB728970FB6F8943A
:10083000DEBF0FBECDBF6B017C010E9482058130FF
:10084000B9F0882389F0823089F1C701B601289672
:100850000FB6F894DEBF0FBECDBFDF91CF91FF90F2
:10086000EF90DF90CF90089580E00E945502EDCF89
:1008700082E590E09A83898381E590E09C838B8375
:1008800080E590E09E838D838FE490E098878F834E
:1008900081E00E94550229813A814B815C816D8102
:1008A0007E818F8198850E945802CFCF82E0DDCF74
:1008B0009C013A9521153F4150F5FC01EE27F1705E
:1008C000BC0166277270AC01442754709C0122273A
:1008D000387094FF0EC080E1EF2B09F480E0672BA5
:1008E00009F08062452B09F08064232B89F0806831
:1008F000089581E0EF2B09F480E0672B09F0826016
:10090000452B09F08460232B19F08860089580E05E
:100910000895CF93DF93EC010E9458049E01205E5E
:1009200031092830310510F0209739F40E94390739
:100930008C2FDF91CF910C944C060E94B009F8CF18
:10094000CF93DF93EC010E94C406CE010E945804AD
:100950009E01205E31092830310510F0CD2B21F4A5
:10096000DF91CF910C944007DF91CF910C94B709A0
:1009700081E0089581E008950C94BA0408950C94E0
:10098000BE041F93CF93DF9300D000D00F92CDB75A
:10099000DEB749835A836B8330912A0189819A811A
:1009A00031111DC06623B9F02223A9F00E94780BF3
:1009B000182F682F89819A810E94210B69817A8181
:1009C000812F0F900F900F900F900F90DF91CF918C
:1009D0001F910C9413120E944F0B182FEFCF0E94FF
:1009E000780B69817A81EDCFFC01262F40815181FE
:1009F0006281738184810C94C10481E00895CF9356
:100A0000DF93EC0160E00E94F404BE01DF91CF911E
:100A10000C94BF040E941F130E94D6050C9444132B
:100A20000C94471380E00E94D7050C94DB030895D3
:100A300008950E94CC090E9418052FEF84E39CE0E2
:100A4000215080409040E1F700C000000C94721BE0
:100A50000F931F93CF93DF938C0161E00E94F40406
:100A6000EC01B8010E94BC048823A9F1B801CE01B1
:100A70000E949719882379F1B801CE010E94D717F7
:100A8000882349F1B801CE010E940119882319F188
:100A9000F8018281882361F0CB35FDE5DF0721F184
:100AA00070F4C115ECE5DE07A1F0CF3DDC45C9F0DF
:100AB000C801DF91CF911F910F910C94B804CC35F0
:100AC0008DE5D807A1F0CD35DD4591F70E94A00F47
:100AD000EFCF0E94190580E0DF91CF911F910F9118
:100AE00008950E945A10F7CF0E94A90FE1CF0E94EB
:100AF000AC0FDECF0C9417050E94F3190E94D705A6
:100B00000C947A05CF92DF92EF92FF926C01EE2463
:100B1000FF2420E0C114D104E104F10419F0C7015D
:100B2000B60120E1C72ED82EE92EFF24C114D1042E
:100B3000E104F10419F0285FC701B6016B017C01E3
:100B400054E0F694E794D794C7945A95D1F7C1141A
:100B5000D104E104F10419F02C5FC701B6016B0167
:100B60007C0142E0F694E794D794C7944A95D1F774
:100B7000C114D104E104F10419F02E5FC701B601DC
:100B80009695879577956795672B682B692B09F064
:100B90002F5F822FFF90EF90DF90CF900895089500
:100BA0000C94CF0581E008950C94D2050895CF935D
:100BB000C82F0E94D0058C2FCF910C94D405CF93D1
:100BC000DF93CDB7DEB72B970FB6F894DEBF0FBE1D
:100BD000CDBF4F83588769877A878B8761110E94C1
:100BE000FB0E1E821D8285E0FE013796DE01119606
:100BF00001900D928A95E1F78C819D81892B89F472
:100C000049815A816B817C818D819E810E941C0E5D
:100C10002B960FB6F894DEBF0FBECDBFDF91CF91FC
:100C2000089589819A8189238F3F51F3CE010196DE
:100C30000E94FD048111E4CFEBCFFC018081918102
:100C40000C94BA0B0F931F93CF93DF9300D000D077
:100C500000D0CDB7DEB7082F162F0E949717298333
:100C60004B835C836D837E83002399F0312B498114
:100C7000532F6B817C818D819E8126960FB6F894CF
:100C8000DEBF0FBECDBFDF91CF911F910F910C94AE
:100C9000B81710953123EBCFCF93C82F882309F4D1
:100CA00071C08238C1F40E94F31981FD6BC089E3E1
:100CB0000E94B60E0E941E0F2FEF81EE94E021508D
:100CC00080409040E1F700C0000089E30E94BD0E23
:100CD000CF910C941E0F8338A1F40E94F31980FD6C
:100CE00051C083E50E94B60E0E941E0F2FEF81EEC9
:100CF00094E0215080409040E1F700C0000083E57F
:100D0000E5CF8438A1F40E94F31982FD3BC087E44B
:100D10000E94B60E0E941E0F2FEF81EE94E021502C
:100D200080409040E1F700C0000087E4CFCF8CEF17
:100D30008C0F813A90F46C2F809103019091040103
:100D40000E94561A882329F08C2F0E94BD0E0E9403
:100D50001E0F8C2F0E94B60EBBCF80E28C0F883006
:100D600048F4C77081E001C0880FCA95EAF70E9475
:100D7000DE0EAECFCD3E30F08C2F0E942015CF91ED
:100D80000C94F315CF910895882309F452C082384A
:100D900071F40E94F31981FF4CC089E30E94B60EE2
:100DA0000E941E0F89E30E94BD0E0C941E0F833813
:100DB00059F40E94F31980FF3CC083E50E94B60EEF
:100DC0000E941E0F83E5EFCF843859F40E94F31977
:100DD00082FF2FC087E40E94B60E0E941E0F87E498
:100DE000E2CF9CEF980F913AF0F290E2980F983092
:100DF00050F4877091E001C0990F8A95EAF7892F26
:100E00000E94E40ED2CF9BE5980F933020F490E03F
:100E100080E00C94181A98E5980F973120F490E030
:100E200080E00C942E1A8D3E20F00E947A150C94CE
:100E3000F31508951F93CF93DF93182FEB010E94B2
:100E40004C06209731F4812FDF91CF911F910C94A4
:100E5000C4068FE99FE00197F1F700C000002197D9
:100E6000F0CF70E060E0893311F460E570E00C943D
:100E70001A07882321F00E94DE0E0C941E0F08959D
:100E8000882321F00E94E40E0C941E0F0895BF9257
:100E9000CF92DF92EF92FF920F931F93CF93DF9346
:100EA0006C01D62FC72FFC011281F580F2949FE0D0
:100EB000F9220E94D40EE82E8823B9F0E12E1123E6
:100EC000A1F08C2F807F803421F080E28D0F88305C
:100ED000D0F08091F90182FD16C082E00E946F0F70
:100EE0000E94D40E91E0E82EE926BC2EB2948FE049
:100EF000B822FBE0FB1508F468C0EB2DF0E0E457E6
:100F0000FD4D0C942122E12CF0CF0C2F0F70C07FEF
:100F100011F00295007F112399F0002359F080E22F
:100F20008D0F883010F0D11107C0802F0E94DE0E87
:100F30000E941E0F8D2F41C0802F0E94EE0EF8CF11
:100F40008D2F0E94C406002309F43FC080E28D0F5C
:100F5000883010F0D11104C0802F0E94E40E03C02D
:100F6000802F0E94F40E0E941E0F2FC00C2F0F70B6
:100F7000C07FC03211F00295007FDD2381F0D130B7
:100F800009F46AC0112309F474C0FF2009F46AC08F
:100F9000F601858180FFCECF8F70858363C08091FD
:100FA000F90182FF39C0112359F0002329F0802F65
:100FB0000E94DE0E0E941E0F80E00E944C0605C0BB
:100FC00080E00E94C4060111C7CF2B2D2850330B9F
:100FD0002430310520F40E94F3190E94D705EE2039
:100FE00009F471C10E94D00E80FD6DC1F60112821C
:100FF0000E94CA0E0E94850AC6010E9484090E94AE
:10100000CA0EDF91CF911F910F91FF90EF90DF906B
:10101000CF90BF900C94A60A112389F0F11006C05E
:101020000E94010F802B0E943907CFCF21E0F212DE
:10103000F7CF0E94010F802B0E94070FC6CFF1103F
:1010400006C00E94140F802F0E944007BECF31E0DF
:10105000F31609F4BACFF5CF112331F085E08F15DF
:1010600008F4B3CF802FDFCF94E09F1508F4ADCF05
:10107000EACFFF2041F3D93349F4FFEF27EE33E005
:10108000F15020403040E1F700C000008D2F0E9459
:10109000C4069BCF8D2F112391F00E942015ED2FB8
:1010A000E15FFF0BE830F10568F461E070E001C03A
:1010B000660FEA95EAF7812F0E94220686CF0E94EA
:1010C0007A15EDCF0E94F31580CF8C2F837009F035
:1010D00041C011117ACF4D2F429546954770440F6C
:1010E000440F0D2F0F7010E030E020E0042E04C0FC
:1010F000000F111F221F331F0A94D2F760E070E027
:10110000CB01D4FF0FC06FE070E080E090E004C03E
:10111000660F771F881F991F4A95D2F760957095C3
:1011200080959095C695C695C370602B712B822BC8
:10113000932BC23049F058F4C13019F00E94390A9B
:1011400044CF0E94270A41CF0E944B0A3ECF0E9403
:10115000250A3BCF8695112311F08C2F81708823AF
:1011600009F433CF4D2F429546954770440F440FF5
:101170000D2F0F7010E030E020E0042E04C0000FAF
:10118000111F221F331F0A94D2F760E070E0CB01D9
:10119000D4FF0FC06FE070E080E090E004C0660F05
:1011A000771F881F991F4A95D2F760957095809593
:1011B0009095C695C695C370602B712B822B932B8F
:1011C000C23049F058F4C13019F00E94FC0AFDCE3B
:1011D0000E94EA0AFACE0E940E0BF7CE0E945F0A26
:1011E000F4CECF70112329F08C2F0E94850A8D2F09
:1011F0001ACF8D2F0E9440078C2F0E94A60AE5CEA1
:10120000D23F51F160F4D03FB9F0D13F81F01123CA
:1012100009F449C0F1108ECE8C2F8F7121C0D33FBD
:1012200011F1D43FA1F78091F90182FF26C08C2FE4
:101230008F71112311F314C0112349F0F4E0FF154D
:1012400008F4C3CE8C2F8F710E94C90ABECE25E050
:101250002F1508F4BACEF6CF8C2F8F711111CDCF88
:101260000E94850AB2CE112329F08C2F8F710E9423
:10127000700AABCE0E946B0AA8CE112349F0CF7141
:101280008C2F0E94850A63E08C2F0E94540F9DCE04
:1012900081E00E946F0F31E03F1508F096CE82E0AA
:1012A0000E946F0F92CEFF2059F0D93309F0EECE95
:1012B0008FEF97EEE3E081509040E040E1F7E4CE1D
:1012C0008C2F8F719ACFDF91CF911F910F91FF904B
:1012D000EF90DF90CF90BF9008950F931F93CF931F
:1012E000DF93EC01688179818A810E94C40B8C01B3
:1012F0000E94200B0E94240AB801CE01DF91CF91F9
:101300001F910F910C944707CF93DF93EC018B81D2
:101310009C81892B29F08881998189238F3F59F4F9
:10132000DF91CF910895CE010E946D09CE01DF912A
:10133000CF910C94FF04CE010E9428058111F3CFB8
:101340000E94D40E882361F38A81882349F3809117
:10135000F90182FDE5CF82E0DF91CF910C946F0F10
:10136000882321F00E94EE0E0C941E0F089588230E
:1013700021F00E94F40E0C941E0F08950E94FB0EA3
:101380000E94FE0E0E941E0F0E941A170C94F31565
:101390000E94C40E0C94BE090E94EB0E0C94C80966
:1013A000E92FE295EF70E250EE3070F4F0E0E8568D
:1013B000FD4D0C942122803F19F020F4883E20F44A
:1013C00081E00895843FE1F380E00895883EC0F312
:1013D000813FD1F7F5CF93FB882780F90895FC0171
:1013E000808191810E94BA0B0C94D009CF93DF9336
:1013F00000D000D00F92CDB7DEB70F900F900F90B6
:101400000F900F90DF91CF910895CF93DF9300D08D
:1014100000D000D0CDB7DEB726960FB6F894DEBF69
:101420000FBECDBFDF91CF91089508950C94150A9A
:101430000E94160A60934D0170934E0180934F01F4
:10144000909350010C94BE0908950C94180A0F93C0
:101450001F9300914D0110914E0120914F01309149
:101460005001602B712B822B932B1F910F910C94A9
:10147000180A0F931F9300914D0110914E01209176
:101480004F013091500160237123822393231F91D8
:101490000F910C94180A0F931F9300914D01109116
:1014A0004E0120914F013091500160277127822712
:1014B00093271F910F910C94180A0C940D040E940D
:1014C0005D0A6093490170934A0180934B019093A8
:1014D0004C010C94BE0960E070E0CB010C945F0AF3
:1014E0000F931F9341E050E060E070E08A019B01A0
:1014F00004C0000F111F221F331F8A95D2F7C901A4
:10150000B8011F910F910C945F0A0F931F9341E054
:1015100050E060E070E004C0440F551F661F771F65
:101520008A95D2F78091490190914A01A0914B018F
:10153000B0914C018A019B01082B192B2A2B3B2BC4
:10154000C901B8011F910F910C945F0A0F931F936B
:1015500041E050E060E070E004C0440F551F661F9A
:10156000771F8A95D2F7CB01BA0160957095809567
:1015700090950091490110914A0120914B013091C1
:101580004C0160237123822393231F910F910C94AC
:101590005F0A0F931F9341E050E060E070E004C0E9
:1015A000440F551F661F771F8A95D2F78091490116
:1015B00090914A01A0914B01B0914C018A019B018D
:1015C000082719272A273B27C901B8011F910F9126
:1015D0000C945F0A0F931F930091490110914A01E7
:1015E00020914B0130914C01602B712B822B932B5E
:1015F0001F910F910C945F0A0F931F930091490163
:1016000010914A0120914B0130914C0160237123CC
:10161000822393231F910F910C945F0A0F931F93C2
:101620000091490110914A0120914B0130914C01E8
:1016300060277127822793271F910F910C945F0ACF
:101640000895E92FEE0FE90FEE0F8E0F982F977088
:1016500041E001C0440F9A95EAF7869586958695F4
:1016600095E0899FF0011124E55DFE4F30E020E018
:1016700070E05191DF011197CB01022E02C09695C7
:1016800087950A94E2F781708195852784238527C1
:101690008C932F5F3F4F2530310559F70895E92F7F
:1016A000EE0FE90FEE0F8E0F982F977086958695A7
:1016B000869525E0829FF0011124E55DFE4F50E004
:1016C00040E080E0219130E0092E02C03695279558
:1016D0000A94E2F721703327042E01C0220F0A94E6
:1016E000EAF7822B4F5F5F4F4530510559F7089558
:1016F000BF92CF92DF92EF92FF920F931F93CF93FF
:10170000DF938C01C0904901D0904A01E0904B01D9
:10171000F0904C0180914D0190914E01A0914F01AC
:10172000B0915001C82AD92AEA2AFB2ACFE1D0E099
:10173000BC2ED701C6010C2E04C0B695A79597956F
:1017400087950A94D2F780FD0EC0219788F7B12CB7
:101750008B2DDF91CF911F910F91FF90EF90DF9034
:10176000CF90BF900895B8018C2F0E942712019747
:1017700061F3EECFCF93DF93EC010E94780BBE01B3
:10178000DF91CF910C9427121F93CF93DF93EB013E
:1017900090912A01992331F0CB01DF91CF911F91D4
:1017A0000C94BA0B882379F0CB010E94780B182F88
:1017B000682FCE010E94210BBE01812FDF91CF91B6
:1017C0001F910C942712CB010E944F0B182FF4CFBE
:1017D0001F93CF93DF93C091510116E08091520186
:1017E0008C1304C0DF91CF911F910895D0E01C9F0E
:1017F000F0011D9FF00D1124ED5AFE4F40815181E3
:1018000062817381848195810E94050A2196C77047
:10181000E5CF4091830150918401609185017091E1
:10182000860180918701909188010C94050AFF92AE
:101830000F931F93CF93DF9380918801807FD1F422
:10184000809185018823B1F080915101109152015E
:101850006091830170918401A0918601B09187010C
:10186000062F0723C0910101D091020196E0F92EC5
:10187000181306C0DF91CF911F910F91FF9008952B
:1018800090E0109711F00F3F19F401968770F0CF98
:10189000F89E9001F99E300D1124F901ED5AFE4F8A
:1018A00041814713F2CF40814613EFCF428141116E
:1018B000ECCF438154814A1B5B0B4C175D0728F723
:1018C000809188018F70806180938801F901E85AC6
:1018D000FE4F80818F708061808383E891E00E9459
:1018E0008409DF91CF911F910F91FF900C94E80B29
:1018F000AF92BF92CF92DF92EF92FF920F931F931E
:10190000CF93DF93CDB7DEB761970FB6F894DEBF04
:101910000FBECDBF8C0185E0F801DE011D96019060
:101920000D928A95E1F7F801E28083E8C82E81E004
:10193000D82E60918601709187016115710509F4B7
:101940005FC19091830120918401892F82238F3F71
:1019500009F456C140815181A380B480F090850183
:10196000F501E61BF70BBF01E0910101F0910201C7
:10197000FF2009F4F6C080918801382F307F6E1760
:101980007F0708F0AFC0311179C0FE2C251323C0AA
:10199000941321C0E1101FC08F7080618093880173
:1019A0000E94090CC6010E94840980918801F801F7
:1019B00085838F2D61960FB6F894DEBF0FBECDBF25
:1019C000DF91CF911F910F91FF90EF90DF90CF901B
:1019D000BF90AF900895AB2829F0842F85238F3FC7
:1019E00009F027C180E0F82FF170DF2E80FF3CC0A6
:1019F000809151012091520136E0821315C04D872C
:101A00005E878D859E850E94BA0B292F22952F70A7
:101A10002230F0F0243018F59F70F1F0F801958134
:101A2000907FD1F4D12C1EC090E0389FF001399FF7
:101A3000F00D1124ED5AFE4F6181651306C06081DF
:101A4000641303C062816E110FC001968770D5CFF9
:101A50009F7011F0882331F3805E883018F3C8013D
:101A60000E948409FD2CA5CFEE2009F4A2CF80911D
:101A70008801816080938801F12C9BCF251306C0DB
:101A8000941304C0F801EE2009F487C0C8010E9435
:101A9000EF09882319F1EE2009F180918801803245
:101AA00070F0209183013091840138872F8319864B
:101AB000BB86AA868C87CE0107960E94840986E0A1
:101AC000F801A3E8B1E001900D928A95E1F70E9438
:101AD000170C0E94090CFF24F3946BCFC8010E94DD
:101AE0008409F9CF311113C07A2DB98AA88A6E2DD5
:101AF00089890E94F60983E891E00E94840986E0C2
:101B0000F60111928A95E9F70E94090CB5CF2513C9
:101B10000FC094130DC0E1100BC0F8018583C801FC
:101B20000E94840986E0F60111928A95E9F741CF77
:101B3000C8010E94EF09882389F2EE2079F2809192
:101B40008801803208F4BBCF209183013091840159
:101B50003A8329831B82BD82AC828E83CE0101969B
:101B6000ACCF6E177F0708F03EC0FE2CEE2009F4C4
:101B7000B5CF25132AC0941328C08091880180FD19
:101B80001BC0982F907FC1F0F8018583903F31F002
:101B9000982F907F905F8F70892B8583C8010E945A
:101BA000840986E0F801A3E8B1E001900D928A95DE
:101BB000E1F70E94090CFDCE86E0F801A3E8B1E050
:101BC00001900D928A95E1F7F4CEC8010E94EF09C9
:101BD000811175CF80918801816080938801C8014F
:101BE0000E948409E6CE7A2DB98AA88A6E2D898949
:101BF0000E94F60986E0F60111928A95E9F7D9CF9D
:101C0000EE2009F46BCFC8010E94EF09F82E88235B
:101C100009F464CF86E0F801A3E8B1E001900D92E9
:101C20008A95E1F783E891E00E941D060E94170C57
:101C3000C0CF81E08E25D7CE1F93CF93DF93CDB752
:101C4000DEB72C970FB6F894DEBF0FBECDBF4F8323
:101C5000588769877A878B879C87CE0107960E9471
:101C6000780C882369F08A859B85892B39F04F8110
:101C70005885842F85238F3F09F071C016E05FC01F
:101C800086E0FE013796DE01119601900D928A954D
:101C9000E1F78A859B85892B89F38F819885892334
:101CA0008F3F61F32091520130E0C90101968770A6
:101CB0009927409151014817190671F40E94CC09E7
:101CC000109252011092510186E0E3E8F1E0DF0149
:101CD0001D928A95E9F7D2CF96E0929FD001939F0B
:101CE000B00D1124AD5ABE4FFE01319601900D92F8
:101CF0009A95E1F7809352010E94E80BBFCF819F34
:101D0000C00111248D5A9E4F0E94780C8823E9F05F
:101D1000E09151011E9FF0011124ED5AFE4F4081C8
:101D2000518162817381848195810E94050A80912D
:101D3000510190E00196877099278093510180911D
:101D40005101909152018913DACF2C960FB6F89475
:101D5000DEBF0FBECDBFDF91CF911F910895698582
:101D60007A858B859C850E94050A88CF682F809193
:101D70000301909104010C948C1A682F8091030147
:101D8000909104010C948E1A8091030190910401AA
:101D90000C94901A80918901859585958595089573
:101DA000809189018770089590918901977081E0F1
:101DB00009F480E00895809195010895909195012E
:101DC000892B809395010895809590919501982392
:101DD0009093950108951092950108959091940122
:101DE000892B809394010895809590919401982374
:101DF0009093940108951092940108951092930184
:101E0000089580918A01089508950C94040F90918B
:101E1000F90192FD08C090918A01981721F08093F2
:101E20008A010C94050F089580918A01882329F076
:101E300010928A0180E00C94050F0895E09103014F
:101E4000F0910401809195018083E0910301F0916C
:101E50000401808190919401892B8083E09103019A
:101E6000F0910401808190919301892B808390915E
:101E70008A01992381F0E0910301F09104018081AE
:101E8000892B808380910301909104010E94441A60
:101E900081110E94140F80910301909104010C9410
:101EA000FF1908950C94510F9091F90192FD10C003
:101EB00098E0899F90011124622B609389010E9410
:101EC000850A809189018595859585950C94520F99
:101ED0000C94850A1092890180E00C94520F909125
:101EE00089018095892380938901282F277091F497
:101EF000282F082E000C330B9217130659F09091DF
:101F0000F90192FD07C08595859585950E94A60AE1
:101F10000C946A0F08959091F90192FB222720F901
:101F2000281769F080FB92F99093F9018091F801EC
:101F30009091F9010E94D60F82E00C946F0F0895E2
:101F40008091F90182FB882780F991E089270C9420
:101F50008B0F81E00C948B0F80E00C948B0F6FEF54
:101F60007FEF90E080E00C94742290E080E00E948B
:101F7000502221E0893E9E4F09F020E0822F0895F3
:101F800082E090E00C94482283E090E00C94482298
:101F9000CF9384E090E00E944822C82F82E290E034
:101FA0000E944822982F8C2FCF910895CF93C92F4C
:101FB000682F84E090E00E9456226C2F82E290E02D
:101FC000CF910C945622AB01BC018FE090E00C94B1
:101FD0006822AB01BC0183E190E00C94682260E0D0
:101FE00070E0CB010C94E90F60E070E0CB010E943F
:101FF000E30F0C94EF0F69EE7EEF90E080E00E941B
:10200000742260E082E090E00E94562260E083E06B
:1020100090E00E94562210924D0110924E011092B3
:102020004F011092500160E084E090E00E9456223F
:1020300060E082E290E00E94562260E085E090E05D
:102040000E94562260E086E090E00E9456226FEFE8
:1020500087E090E00E94562240E050E0BA0188E01C
:1020600090E00E94682260E08DE090E00E9456229D
:1020700040E050E0BA0188E190E00E94682260E010
:1020800087E190E00E94562240E050E0BA018CE1E6
:1020900090E00E94682270E060E080E290E00E94A0
:1020A000742240E050E0BA0188E190E00E9468228A
:1020B0000C94F40F0C94FB0F682F8EE090E00C94BE
:1020C00056220E94331B6093A2017093A301809358
:1020D000A4019093A50160939E0170939F0180934A
:1020E000A0019093A101089585B7806885BF85B749
:1020F000806885BF0895089508950C947B10089515
:102100000C947F100E94741085E093E10E94E919FD
:102110000E947C100C947D1081E008950C948C102A
:10212000089508950E9490100C9491100E941E1B17
:102130000E94EF130E94D9030C948010AF92BF92BB
:10214000CF92DF92EF92FF920F931F93CF93DF9383
:10215000CDB7DEB72A970FB6F894DEBF0FBECDBF5E
:102160000E94041481110E94611087E9A82E81E069
:10217000B82E10E000E0C02E802F0E944913E82EF8
:10218000F501F1905F01F81609F44FC08091A601A6
:1021900081FD0E944F138F2D8E25D12CFF24F394A7
:1021A000982F9F21E9F10E948E10882399F0DE82FA
:1021B000CF82EF2081E009F480E088870E94271B0E
:1021C0008160782F9A8789874E815F8168858A85AB
:1021D0000E94DF05F801E956FE4F8081F826F08263
:1021E0000E940E160E94DB030E94F3199091960143
:1021F000891791F10E94F319809396012A960FB6E0
:10220000F894DEBF0FBECDBFDF91CF911F910F912C
:10221000FF90EF90DF90CF90BF90AF900C94D705D8
:10222000D394FF0CF6E0DF12BBCF0F5F1F4F0730D8
:10223000110509F0A0CF8FEF89838A831B820E944A
:10224000271B8160782F9D838C8349815A816B8104
:102250008D810E94DF05C4CF2A960FB6F894DEBFA9
:102260000FBECDBFDF91CF911F910F91FF90EF90E7
:10227000DF90CF90BF90AF900895CF93DF930E94EF
:102280002B12EC01811522E5920778F5811531E5D5
:10229000930708F098C08F3F910509F0B8F48D3E80
:1022A000910508F06FC0853A910540F4843091059E
:1022B00048F4019739F0D0E0C0E004C0805E910995
:1022C0000897C8F7CE01DF91CF910895811540E5B9
:1022D000940708F05CC0C11580E4D80708F054C02A
:1022E000C11590E2D90770F3E6CF811526E5920774
:1022F00018F5811535E5930708F07DC0811544E593
:10230000940708F073C0982F969596959E012370B8
:102310003327C115D34508F45BC0C1E0D0E002C04B
:10232000CC0FDD1F2A95E2F730E2939FC001112404
:10233000C82BD92BDA68C6CFC1159AE5D90778F42E
:10234000C11529E5D20708F060C0C11538E5D307EB
:1023500008F4B1CFDC2FCC27C06FD06AB3CFCE0149
:1023600090568115904208F0A6CF8D2F8F710E9454
:10237000C21290E0982F882788279F719C012C2BF0
:10238000E90141C0D0659ECFDF70D06A9BCFE4E009
:1023900096958795EA95E1F783702C2F26952695DB
:1023A000237090E2299F90011124382B8C2F837089
:1023B000C1E0D0E002C0CC0FDD1F8A95E2F7C22B4E
:1023C000D32BDC687FCFD82FCC27C16FD06A7ACFD0
:1023D000C1E0D0E002C0CC0FDD1F2A95E2F720E279
:1023E000929FC0011124C82BD92BEBCFD82FCC271B
:1023F000C46FD06A67CF0E94C212C82FD0E0DC2F12
:10240000CC27CC27DF71D0625DCF8C2F8F700E94DC
:10241000C21234E0D695C7953A95E1F7CF709C2F5C
:10242000EC01D0694FCF972F70E026E0929F600DAE
:10243000711D1124FB019AE2899FE00DF11D112409
:10244000EE0FFF1FE455FF4F8591949108950E9470
:1024500013120C943D1182389105B1F1B0F481331F
:10246000910509F475C048F48932910509F469C0F1
:102470008A32910509F473C008958533910509F4F2
:1024800059C08933910501F10895833E9105A9F161
:1024900038F4803E9105F9F0823E910549F10895A6
:1024A000863E9105A9F1873E9105C9F1843E9105CB
:1024B00019F52091F90121FF1FC08091F80184FDD9
:1024C00014C087EE90E008952091F8012370A1F0E8
:1024D00080EE90E008952091F80120FD47C03091F2
:1024E000F90130FF09C024FF44C090E080E004C03F
:1024F0002091F80122FDF7CF08952091F80122FDE7
:102500003BC03091F90130FDE3CF24FFF5CFEDCF93
:102510002091F80123FFF0CF24FDE7CFD2CF209107
:10252000F80123FD2CC03091F90131FFEECF84EE8C
:1025300090E008952091F80125FFDECF89E290E038
:1025400008952091F80125FFD7CF85E390E0089505
:102550002091F80126FFD0CF8AE290E008952091E3
:10256000F80126FFC9CF81E390E0089589E390E068
:10257000089583EE90E0089582EE90E0089586EE4F
:1025800090E008959091F80192FF06C0282F2871DD
:102590002830F9F4877F846093FF06C0282F2871C4
:1025A0002831F1F4877E84612091F90120FF06C073
:1025B000382F38713830D9F4877F816021FF06C009
:1025C000282F28712831D1F4877E816194FD877E80
:1025D0000895282F24712430F9F68B7F8860DCCF92
:1025E000282F2471243101F78B7E8861DDCF382FAD
:1025F0003171313019F78E7F8860E0CF282F21713B
:10260000213121F78E7E8861E1CF80E008950C941E
:10261000AF0F0E9404148FE39CE90197F1F700C00B
:1026200000000E94041480E00E94491380FF04C04F
:102630000E9407130C94721B08950C9409130E94B6
:10264000B50F811102C00E945A100E94C00F8093E2
:10265000A6010E94C80F9093F9018093F8010E948F
:102660001D130E94C40F682F70E090E080E00E946C
:10267000250A6091490170914A0180914B01909126
:102680004C010C945D0A08950C94431308950C9426
:102690004613E82FF0E0EF5FFD4F80810895089525
:1026A00080EA8A95F1F7089500C008950C945013BC
:1026B000F894E82FE295EF70F0E031A1282F2F7009
:1026C00081E090E001C0880F2A95EAF7982F909555
:1026D000932391A392A1892B82A378940895CF93F9
:1026E000DF93C0E2D1E089918F3F11F00E9458132F
:1026F00081E0C732D807B9F7CAE1D1E089918F3FAD
:1027000011F00E94581381E0C032D807B9F7DF9169
:10271000CF910895CF92DF92EF92FF920F931F9384
:10272000CF93DF93EC01D62E062F10E0C801805E18
:102730009E4F7C01FC0180818F3F09F445C0F894D5
:10274000E82FE295EF70F0E091A18F7021E030E08A
:1027500001C0220F8A95EAF7892F822B81A382A1DB
:102760002095282322A378940E945413EAE1F1E0F3
:1027700040E251E031E0C12C21912F3F71F1A22FB5
:10278000A295AF70B0E090968C9190E02F7002C04F
:10279000959587952A95E2F780FD1FC0832FC82A5B
:1027A000330F4E175F0741F7F70180818F3F11F01C
:1027B0000E94581361E0C11001C060E08D2D0E949D
:1027C0005613C00FD11FC882DF91CF911F910F9177
:1027D000FF90EF90DF90CF90089580E0E0CF0E94CF
:1027E0006F1387E0E1E0F2E0DF01982F1D929A95E8
:1027F000E9F7EAEFF1E0DF011D928A95E9F787E05A
:102800000E944D140C940A05FF920F931F93CF93CF
:10281000DF9300D000D000D00F92CDB7DEB78E018D
:102820000F5F1F4F87E0F80111928A95E9F7F12CAD
:102830006F2DC8010E948A13F394F7E0FF12F8CFBE
:1028400047E050E0B8018AEF91E00E943B22FF246C
:10285000F394009709F4F12C892B41F087E0F801FB
:10286000AAEFB1E001900D928A95E1F72F2D47E094
:1028700061E072E08AEF91E00E944E140E94100520
:102880008F2D27960FB6F894DEBF0FBECDBFDF9118
:10289000CF911F910F91FF9008950895FF920F938C
:1028A0001F93CF93DF93F82E092F162FD72FC42F06
:1028B000222349F081E08093A9010E94271B909375
:1028C000A8018093A7018091A9018823A1F080919C
:1028D000A7019091A8010E943F1B059760F0EF2D82
:1028E000F02FA12FBD2FCE0FDF2FD11DEC17FD072D
:1028F00041F41092A901DF91CF911F910F91FF90A8
:10290000089581918D93F2CF0E94E11C0E94961050
:102910000C94ED1C0E94F11C0E949E100C940B1D47
:102920000E94B11A0E94C81C0E9482100E94841446
:102930000E948A140E949210FBCF8091B00180FF08
:1029400012C060910A0185E0689FB001112475955D
:1029500067957595679560387105A8F561157105DE
:10296000A1F1862F089581FF09C060910A0185E0D9
:10297000689FB001112475956795EDCF60910A01AC
:1029800082FD0AC08091AF018823D1F090910901A6
:1029900060910A01891728F085E0689FB001112431
:1029A000DACF869FB001112485E0869F9001879F32
:1029B000300D1124692F70E0C9010E940D22CBCF88
:1029C00065E070E0CECF8FE7089581E008958091B3
:1029D000B00180FF0CC06091060170E075956795AD
:1029E000759567956115710549F1862F089581FFE9
:1029F00006C06091060170E075956795F3CF609110
:102A0000060182FD0BC09091AE019923A1F0609167
:102A1000050180910601961738F0682F70E0603844
:102A2000710500F38FE70895899FC001112470E0BC
:102A30000E940D22F4CF61E070E0D7CF81E00895CD
:102A40008D3E31F40E949D1481958093B4010895C8
:102A50008E3E19F40E949D14F8CF8F3E31F40E94EF
:102A60009D1481958093B3010895803F19F40E94CD
:102A70009D14F8CF893F29F40E94E7148093B50193
:102A800008958A3F21F40E94E7148195F7CF8B3F88
:102A900031F40E94E71481958093B60108958C3F2C
:102AA00019F40E94E714F8CF9FE0980F983070F463
:102AB000815F990B21E030E001C0220F8A95EAF78F
:102AC0008091B201822B8093B20108958D3F31F441
:102AD0008091B00181608093B00108958E3F21F410
:102AE0008091B0018260F7CF8F3FB9F78091B0013C
:102AF0008460F1CF4091B3018D3E59F48091B401CF
:102B000087FF0DC01092B40141110BC01092AF01AC
:102B100008C08E3E81F48091B40118169CF34423C2
:102B200081F08091B5019091B601892B09F05AC0CE
:102B30001092AE0108958F3E49F447FFF0CF1092F6
:102B4000B3018091B4018111ECCFE0CF803F19F443
:102B50001416ACF3E4CF9091B501893F29F419160E
:102B6000F4F61092B501DBCF8A3F19F497FFD7CF67
:102B7000F8CF9091B6018B3F29F497FFD0CF1092F8
:102B8000B601CDCF8C3F19F41916CCF3C8CF9FE016
:102B9000980F983090F4815F990B21E030E0B901F3
:102BA00002C0660F771F8A95E2F7CB01809590915E
:102BB000B20189238093B201B2CF8D3F31F480916D
:102BC000B0018E7F8093B001AACF8E3F21F4809117
:102BD000B0018D7FF7CF8F3F09F0A1CF8091B00179
:102BE0008B7FF0CF08950E94271B9C019091B30129
:102BF0008091B401982B21F03093AD012093AC016A
:102C00009091B5018091B601982B21F03093AB01E2
:102C10002093AA0181EB91E00C940A1AEF92FF92A3
:102C20000F931F93CF93DF9300D000D000D0CDB788
:102C3000DEB786E0E1EBF1E0DE01119601900D9246
:102C40008A95E1F7E090B301F090B4010091B501ED
:102C50001091B6011092B3011092B4011092B50117
:102C60001092B6018E2D8F2991F08091AC01909138
:102C7000AD010E943F1BAC019091AF01992309F473
:102C80003FC080910B018417150608F447C0802FC0
:102C9000812B91F08091AA019091AB010E943F1B82
:102CA000AC019091AE01992309F477C0809107019E
:102CB0008417150608F47FC08091B3019091B40188
:102CC000892B9091B501892B9091B601892B11F038
:102CD0000E94F31586E0FE013196A1EBB1E0019070
:102CE0000D928A95E1F726960FB6F894DEBF0FBED7
:102CF000CDBFDF91CF911F910F91FF90EF9008957D
:102D000020910C018AE0289F900111242417350797
:102D100008F0BDCF9F5F9093AF0102C09F3FD1F7F6
:102D2000EE2059F00E949D149FEF1E140CF491E0C8
:102D3000899F802D11248093B301FF2059F00E94B8
:102D40009D149FEF1F140CF491E0899F802D112496
:102D50008093B4013091B301332309F498CF2091CB
:102D6000B401222309F493CF45EB3403C0011124AD
:102D7000992359F09093B30145EB2403900111245A
:102D8000332339F03093B40182CF81E08093B301D3
:102D9000F3CF81E08093B4017ACF209108018AE0DB
:102DA000289F900111242417350708F085CF9F5FD5
:102DB0009093AE0102C09F3FD1F7002359F00E94CB
:102DC000E7149FEF10160CF491E0899F802D1124D9
:102DD0008093B501112359F00E94E7149FEF11165B
:102DE0000CF491E0899F802D11248093B6013091DD
:102DF000B501332309F460CF2091B601222309F4F1
:102E00005BCF45EB3403C0011124992359F0909313
:102E1000B50145EB240390011124332339F030939D
:102E2000B6014ACF81E08093B501F3CF81E0809372
:102E3000B60142CF86E0E1EBF1E0DF011D928A9519
:102E4000E9F71092AF011092AE011092B00108950F
:102E5000EF92FF920F931F93CF93DF93CDB7DEB71F
:102E60002C970FB6F894DEBF0FBECDBF49835A83AF
:102E70006B837C838D839E83EF82F88609871A8714
:102E80002B873C8746E050E0BE01695F7F4FCE0153
:102E900001960E943B2221E0892B09F420E0822F39
:102EA0002C960FB6F894DEBF0FBECDBFDF91CF9149
:102EB0001F910F91FF90EF900895EF92FF920F9363
:102EC0001F93E090B701F090B8010091B901109103
:102ED000BA012091BB013091BC014091BD015091DC
:102EE000BE016091BF017091C0018091C1019091BC
:102EF000C2010E942817882321F08DEB91E00E94E7
:102F00000A1A1092BF011092C0011092C1011092D2
:102F1000C20186E0EDEBF1E0A7EBB1E001900D928C
:102F20008A95E1F71F910F91FF90EF900895CF934D
:102F3000DF9300D000D000D0CDB7DEB786E0EDEB58
:102F4000F1E0DE01119601900D928A95E1F7298159
:102F50003A814B815C816D817E8180E090E0269694
:102F60000FB6F894DEBF0FBECDBFDF91CF910895AD
:102F7000CF93DF9300D000D000D0CDB7DEB7498328
:102F80005A836B837C838D839E8386E0FE0131961A
:102F9000ADEBB1E001900D928A95E1F726960FB660
:102FA000F894DEBF0FBECDBFDF91CF910895CF93D0
:102FB000DF93EC01FB018281882309F420C1C43036
:102FC000FDE5DF07C8F5CB3F9CE5D90730F49E014E
:102FD00022503C452431310598F50E94C80F90934A
:102FE000F9018093F801C031FCE5DF0709F4E0C086
:102FF00008F061C0C8309CE5D90709F4CBC088F55A
:10300000C430FCE5DF0709F4B3C0E8F4C2309CE546
:10301000D90709F4A7C08091F8018260C330DC456C
:1030200009F4A3C08091F8019091F9010E94D60F94
:103030000E94CC0980E004C0C236EDE5DE0769F2EB
:10304000DF91CF9108958091F8018061C630FCE551
:10305000DF0709F48AC008F48FC08091F80180620C
:1030600084C08091F8018D7FCC309CE5D90709F4AC
:103070007CC070F48091F8018C60CA30FCE5DF07F9
:1030800009F473C008F48AC08091F8018E7F6DC086
:103090008091F801877FCE309CE5D90709F465C09F
:1030A0008091F8018B7FCF30DC4508F45EC08091C1
:1030B000F8018F7E5AC0CD3FFCE5DF0709F474C0EC
:1030C00040F5C4319CE5D90709F48AC058F4C231EF
:1030D000FCE5DF0709F474C008F46EC08091F801C4
:1030E000837F43C0CB3F9CE5D90709F449C008F072
:1030F0004DC0C531DC4509F095CF8091F80182FBC8
:10310000992790F921E0922790FB82F990FB83F9AF
:103110002CC0C1308DE5D80709F458C088F48091DF
:10312000F9018360CF3FECE5DE0769F18091F90199
:103130008D7FC115DD4538F18091F9018C7F23C069
:10314000C3308DE5D80709F458C008F452C0C23620
:10315000DD4509F067CF9091F801892F8F7E94FFAC
:10316000806103C08091F80181608093F8015ACF9B
:103170008091F8018460F9CF8091F8018860F5CFE3
:103180008091F90181608093F9014CCF8091F90120
:103190008260F9CF8091F8018064E7CF0E94CC096A
:1031A0008091F8018068E1CF8091F9018E7FEBCFAB
:1031B0008091F8018F7DD9CF8091F8018F7BD5CF99
:1031C0000E94CC098091F8018F77CFCF8091F901CF
:1031D000982F909591708E7F892B90FB81F9D3CF9A
:1031E0000E94CC099091F801892F97FB87F98058AC
:1031F000BCCF81E00E945C1015CF80E0FBCF81E066
:103200001FCFCF93DF93EB0186319C4511F50E94D0
:10321000DB0E9A81992399F08A7A91E009F490E083
:103220009093C301811109C089E20E94B60E0E94E9
:103230001E0F80E0DF91CF91089585E3F6CF809156
:10324000C301811104C089E20E94BD0EF0CF85E365
:10325000FBCF81E0EFCF0F931F93CF93DF93C42F6A
:10326000D22FFC0182818823C9F04093C6010E94BD
:10327000271B9093C5018093C40180E28C0F883096
:1032800008F050C0C77081E001C0880FCA95EAF706
:10329000DF91CF911F910F910C9439071091C601C6
:1032A000141335C08091C4019091C5010E943F1B49
:1032B000883C910560F5C0E2CD0F1D17B9F080E2A2
:1032C000810F883040F4177081E001C0880F1A9593
:1032D000EAF70E944007C83048F481E09D2F9770BC
:1032E00001C0880F9A95EAF70E943907802F0E9443
:1032F0003107C830B8F4D77081E001C0880FDA9583
:10330000EAF7DF91CF911F910F910C94400780E273
:103310008C0F883038F4C77081E001C0880FCA95DF
:10332000EAF7EFCFDF91CF911F910F9108950F939F
:103330009C01CB01243F4CE5340759F1A8F4293D09
:10334000FCE53F0701F12A3D4CE53407D1F1283D6A
:103350003C4591F406E221EE41EE68ED7CE50E94E9
:103360002B1980E00F910895263FFCE53F07E9F017
:10337000B0F0273F3C45F9F0FC018281882339F108
:103380001092C601EFCF07E225EE45EE69ED7CE530
:10339000E6CF06E221EE40EE64EF7CE5E0CF07E207
:1033A00025EE44EE65EF7CE5DACF06E221EE42EE53
:1033B00066EF7CE5D4CF07E225EE46EE67EF7CE5CD
:1033C000CECF08E221E045EE6AED7CE5C8CF81E092
:1033D000C9CF909329018093280108959093CC013F
:1033E0008093CB010895E091CB01F091CC0130970F
:1033F00021F00190F081E02D099480E00895E091A2
:10340000CB01F091CC01309721F00280F381E02DC7
:1034100009940895E091CB01F091CC01309739F0F7
:1034200022E0DC012C930480F581E02D09940895BD
:103430002091C9013091CA012817390771F0909382
:10344000CA018093C901E091CB01F091CC01309782
:1034500021F00680F781E02D099408952091C7019D
:103460003091C8012817390771F09093C8018093F3
:10347000C701E091CB01F091CC01309721F000849D
:10348000F185E02D099408959C012E5F3F4FAC011A
:10349000485F5F4F80E02417350709F40895F9016C
:1034A00091919F019923B9F38F5FF5CF662349F07E
:1034B000FC01329608962191261729F0E817F907A2
:1034C000D1F780E0089581E008959C01FC013296D7
:1034D0009FEF80E04191461751F09F3F19F4411151
:1034E00001C0982F8F5F8630A9F79F3F09F4089598
:1034F000290F311D97FD3A95F90162830895FC016A
:10350000329608962191261303C0DF0111971C9271
:10351000E817F907B9F708950C94651A0C947F1A07
:10352000029626E0FC0111922A95E9F70895089584
:103530000C94971A811105C081E08093CD010C9401
:10354000981A82E0FACF83E08093CD010C94981A08
:103550000C949A1A81E08093CD010C94981A0C94E3
:10356000AA1A089580911002843031F10E94120548
:103570001092CE0188E190E020E40FB6F894A8956F
:10358000809360000FBE2093600083B7817F8460CA
:1035900083BF83B7816083BF7894889583B78E7F1C
:1035A00083BF0FB6F894A8958091600088618093DE
:1035B0006000109260000FBE089508950895CF93A3
:1035C0000E94DD1A0E9404140E94DE1AC0E08C2FB3
:1035D0000E944913811105C0CF5FC730C1F7CF9159
:1035E000089581E0FCCF0E94CC090C947C051F92C9
:1035F0001FB61F9211248F939F93AF93BF93809117
:10360000CE01811113C08091080290910902A0910E
:103610000A02B0910B024196A11DB11D80930802D0
:1036200090930902A0930A02B0930B02BF91AF914D
:103630009F918F911F901FBE1F90189582E084BDAF
:1036400093E095BD9AEF97BD80936E0008952FB7D4
:10365000F8948091080290910902A0910A02B09119
:103660000B022FBF08952FB7F89460910802709154
:10367000090280910A0290910B022FBF08959C01CC
:103680004FB7F8948091080290910902A0910A0224
:10369000B0910B024FBF821B930B089578941F9239
:1036A0001FB61F9211248F939F93AF93BF93809166
:1036B000080290910902A0910A02B0910B020196B2
:1036C000A11DB11D8093080290930902A0930A02E4
:1036D000B0930B02BF91AF919F918F911F901FBE2E
:1036E0001F90189587E797E790930108809300084B
:1036F00088E19AE00FB6F894A895809360000FBE19
:1037000090936000FFCF8091D701089508950895A8
:103710009C0182E08093E9009FEF8091E800915046
:1037200085FD06C085ED8A95F1F700009111F5CF72
:103730008091E80085FF0CC050E040E066E070E05A
:10374000C9010E947C1D8091E8008E778093E8007B
:103750000895CF93DF93EC0181E08093E9008FEF30
:103760009091E800815095FD06C095ED9A95F1F78E
:1037700000008111F5CF8091E80085FF14C050E072
:1037800040E068E070E0CE010E947C1D8091E8007E
:103790008E778093E80088E0FE01AFECB1E0019005
:1037A0000D928A95E1F7DF91CF9108950895809168
:1037B0000F02811109C00E940C1F0E94691F809195
:1037C000E20084608093E200089510920F02089551
:1037D0000C94AA1A60910C0281E0611101C080E092
:1037E0000C94A31A9091100281E0943009F080E0CB
:1037F00060910C020C94A81A42E061EC81E00E94F6
:10380000881E42E261EC82E00E94881E90911002C4
:1038100081E0943009F080E060910C020C949A1AD7
:1038200080911202833009F460C030F48130C9F114
:10383000823009F49CC008958A3009F488C08B3026
:1038400009F46EC0893009F04FC0809111028132B5
:1038500009F04AC08091150290911602029708F073
:1038600043C08091E800877F8093E8008091E80062
:1038700082FF36C09091F3008091F200029731F4FC
:103880008091F100813011F0863021F48091F100B7
:103890008093D7018091E8008B778093E8000C94A7
:1038A000BC1E80911102813AF9F48091E800877F73
:1038B0008093E8008091150290911602892B61F4A3
:1038C00068E08FEC91E070E00E94CB1D8091E800F1
:1038D0008B778093E800089560E090E080E0F3CF7C
:1038E000809110028111C2CF089580911102813A16
:1038F000D9F78091150290911602892BA9F7809132
:10390000E800877F8093E8008091E80080FFFCCF8B
:10391000809119018093F1008091E8008E77BDCFEE
:1039200080911102813201F7809115029091160267
:10393000892BD1F68091E800877F8093E8000E9470
:10394000BC1E80911302809319010C94CC098091C4
:103950001102813249F68091E800877F8093E80068
:103960000E94BC1E809114028093D801089580911A
:103970001102813A09F0B8CF8091E800877F8093E7
:10398000E8008091E80080FFFCCF8091D801C2CF91
:1039900084B7877F84BF0FB6F894A89580916000A4
:1039A000886180936000109260000FBE80E890E014
:1039B0000FB6F89480936100909361000FBE0C9451
:1039C000AF1A0E940C1F0E94691FE2EEF0E0808196
:1039D0008460808378940C94F2218DE091E00C94C3
:1039E000EE19809110028530A9F480911002853083
:1039F00011F00C94F31A0E94B21A80910E028823DF
:103A0000A1F30E94DF1A882381F30E94661D0E94A1
:103A1000CC09EBCF089508950C940E1D292F332760
:103A20002330310519F168F42130310509F444C01F
:103A30002230310509F445C090E080E030E020E01C
:103A400025C02132310549F122323105A9F780E440
:103A500090E024ED32E061157105C1F089E490E059
:103A60002BE832E06130710589F0E6CF992781308B
:103A7000910581F0009729F00297F1F6ECEFF1E063
:103A800002C0EAE3F2E0849190E09F01FA01318301
:103A900020830895E6E1F2E0F6CF89E090E020E5AA
:103AA00032E06115710591F389E090E029E632E09A
:103AB0006130710559F3C0CF82E190E029E732E02F
:103AC000E5CF8BE390E02EE332E0E0CF80E189BDEB
:103AD00082E189BD09B400FEFDCF8091D8008F7DC1
:103AE0008093D8008091E00082608093E000809114
:103AF000E00081FDFCCF0895AF92BF92CF92DF929C
:103B0000FF920F931F93CF93DF936C01EB018A0118
:103B10000E94DB1EF82E811123C00115110539F01A
:103B2000F80180819181C81BD90BC80ED91EB12C18
:103B3000A12C2097A9F08091E80085FD22C08091FA
:103B4000E8008E778093E80001151105A1F0F801D7
:103B500080819181A80EB91EB182A08285E0F82EE5
:103B60008F2DDF91CF911F910F91FF90DF90CF901C
:103B7000BF90AF9008950E94DB1E8823D1F2F82EEB
:103B8000EFCFF60181916F018093F1002197FFEF54
:103B9000AF1ABF0ACECFFC01809117029091180294
:103BA00086179707A0F06115710529F49091E80038
:103BB0009E779093E80090E06115710551F49111A2
:103BC00008C08091E80082FF34C080E00895BC0105
:103BD000F2CF809110028823C1F18530C1F180912C
:103BE000E80083FD30C08091E80082FDEACF80913B
:103BF000E80080FFE1CF8091F3002091F200382FA0
:103C00006115710519F02830310558F091E0283020
:103C1000310509F090E02091E8002E772093E8002C
:103C2000CBCF81918093F100615071092F5F3F4F9D
:103C3000E7CF80911002882341F0853041F08091D8
:103C4000E80083FFBECF81E0089582E0089583E01D
:103C50000895FC018091170290911802861797072A
:103C6000A0F06115710529F48091E8008E778093AA
:103C7000E80090E06115710551F4911108C0809140
:103C8000E80082FF35C080E00895BC01F2CF80914A
:103C900010028823C9F18530C9F18091E80083FDC5
:103CA00031C08091E80082FDEACF8091E80080FF7A
:103CB000E1CF8091F3002091F200382F611571055A
:103CC00019F02830310558F091E02830310509F01D
:103CD00090E08091E8008E778093E800CBCF8491CC
:103CE0008093F1003196615071092F5F3F4FE6CF0D
:103CF00080911002882341F0853041F08091E800E6
:103D000083FFBDCF81E0089582E0089583E00895A8
:103D1000982F973028F08F708093E90081E0089504
:103D20009093E900242F762F50E0981731F070918E
:103D3000EC002091ED005091F00021FD02C09F5F4A
:103D4000E8CF3091EB003E7F3093EB003091ED00F7
:103D50003D7F3093ED003091EB0031603093EB000C
:103D60007093EC002093ED005093F0002091EE0052
:103D700027FDE5CF80E008958091110287FF13C0F1
:103D80008091E80082FF06C08091E8008B778093E5
:103D9000E80004C0809110028111F2CF0895809153
:103DA00010028823D9F38091E80080FFF8CF80913A
:103DB000E8008E77ECCF2091E4003091E50095E6A5
:103DC000A9012091EC00822F817020FF06C0809114
:103DD000E80080FF06C080E008952091E80022FD01
:103DE0001AC080911002882389F0853089F0809173
:103DF000EB0085FD0FC02091E4003091E5004217F3
:103E00005307F9F29150E1F684E0089582E00895B5
:103E100083E0089581E008950E947A1F0E94821F26
:103E2000E0EEF0E0808181608083E8EDF0E0808169
:103E30008F77808319BCA7EDB0E08C918E7F8C9337
:103E400080818F7E808310920F0208950F931F93BD
:103E5000CF93DF930E947A1F0E94821FC8EDD0E0AB
:103E600088818F77888388818068888388818F7D27
:103E7000888319BC1092100210920C0210920E024C
:103E800010920D0200EE10E0F80180818B7F80839C
:103E900088818160888342E060E080E00E94881E23
:103EA000E1EEF0E080818E7F8083E2EEF0E08081C1
:103EB00081608083808188608083F80180818E7F2B
:103EC0008083888180618883DF91CF911F910F91DA
:103ED0000895E8EDF0E080818F7E8083E7EDF0E0EB
:103EE00080818160808384E082BF81E080930F02C3
:103EF0000C94261FE8EDF0E080818E7F8083109285
:103F0000E20008951092DA001092E10008951F92E5
:103F10000F920FB60F9211242F933F934F935F93FD
:103F20006F937F938F939F93AF93BF93EF93FF9381
:103F30008091E10082FF0BC08091E20082FF07C008
:103F40008091E1008B7F8093E1000E94F1218091BC
:103F5000DA0080FF19C08091D80080FF15C08091E1
:103F6000DA008E7F8093DA008091D90080FF96C0BE
:103F700080E189BD82E189BD09B400FEFDCF81E009
:103F8000809310020E94D71B8091E10080FF19C02E
:103F90008091E20080FF15C08091E2008E7F8093C7
:103FA000E2008091E20080618093E2008091D8007D
:103FB00080628093D80019BC85E0809310020E9433
:103FC000EA1B8091E10084FF2BC08091E20084FF16
:103FD00027C080E189BD82E189BD89B5982F9170A4
:103FE00080FFFBCF8091D8008F7D8093D800809197
:103FF000E1008F7E8093E1008091E2008F7E8093CC
:10400000E2008091E20081608093E20080910C02E6
:10401000882309F449C084E0809310020E94F21BB7
:104020008091E10083FF29C08091E20083FF25C0D9
:104030008091E100877F8093E10082E0809310020D
:1040400010920C028091E1008E7F8093E1008091BC
:10405000E2008E7F8093E2008091E2008061809395
:10406000E20042E060E080E00E94881E8091F00063
:1040700088608093F0000E94E81BFF91EF91BF9150
:10408000AF919F918F917F916F915F914F913F91F0
:104090002F910F900FBE0F901F90189519BC109282
:1040A00010020E94E51B70CF8091E30087FD93E032
:1040B00090931002B3CF1F920F920FB60F9211245C
:1040C0002F933F934F935F936F937F938F939F9320
:1040D000AF93BF93CF93DF93EF93FF93D091E9001A
:1040E000DF708091EC00C82FC17080FDC0E8109295
:1040F000E9008091F000877F8093F00078940E941F
:104100009F201092E9008091F00088608093F00079
:10411000CD2BCF70C093E900FF91EF91DF91CF914C
:10412000BF91AF919F918F917F916F915F914F91CF
:104130003F912F910F900FBE0F901F9018951F93D6
:10414000CF93DF93CDB7DEB7AA970FB6F894DEBF53
:104150000FBECDBF81E192E02091F100FC012193DF
:10416000CF01F2E089319F07B9F70E94101C8091BE
:10417000E80083FF1EC180911102909112029A30D3
:1041800008F017C1E92FF0E0EA55FD4D0C9421220B
:10419000803899F0823809F00CC1809115028F7037
:1041A000873008F006C18093E9008091EB0085FB21
:1041B000882780F91092E90006C080910D02909145
:1041C0000E02911182609091E800977F9093E80031
:1041D0008093F1001092F1008091E8008E77E5C0A5
:1041E000882309F4D3C0823009F0E3C08091130220
:1041F0008111D6C0809115028F702FEF280F2630C5
:1042000008F0D7C08093E9002091EB0020FFC8C0E0
:10421000933031F48091EB0080628093EB00C0C05A
:104220009091EB0090619093EB0021E030E001C0B1
:10423000220F8A95EAF72093EA001092EA00809113
:10424000EB008860EACF8111B4C0109113021F7790
:104250008091E3008078812B8093E3008091E800D7
:10426000877F8093E8000E94BC1E8091E80080FF59
:10427000FCCF8091E30080688093E30082E011111D
:1042800083E08093100295C08058823008F091C07E
:1042900080911302909114028C3D23E09207A1F5C6
:1042A00083E08A838AE289834FB7F894DE0113960C
:1042B00020E03EE051E2E32FF0E050935700E4911C
:1042C00020FF03C0E295EF703F5FEF708E2F90E00C
:1042D000EA30C0F0C7968D939D932F5F243159F734
:1042E0004FBF8091E800877F8093E8006AE270E02A
:1042F000CE0101960E94CB1D8091E8008B778093C0
:10430000E80057C0C096E7CF609115027091160281
:10431000AE014F5F5F4F0E940C1DBC01892B09F459
:1043200048C09091E800977F9093E80089819A8136
:104330000E94291EE1CF8038E1F58091E800877F57
:104340008093E80080910C028093F10045CF8111A9
:1043500030C090911302923060F58091E800877F21
:104360008093E80090930C020E94BC1E80910C0286
:10437000882311F084E005C08091E30087FDFACF27
:1043800081E0809310020E94FC1B13C080911302F5
:10439000813079F481E0933009F080E080930E025F
:1043A0001092E9008091E800877F8093E8000E94E6
:1043B000BC1E8091E80083FF0AC08091E800877FDF
:1043C0008093E8008091EB0080628093EB00AA96D6
:1043D0000FB6F894DEBF0FBECDBFDF91CF911F9116
:1043E00008950895CF93809110028823A1F0C09181
:1043F000E900CF709091EC00892F817090FD80E8EA
:10440000C82B1092E9008091E80083FD0E949F2054
:10441000CF70C093E900CF91089597FB072E16F453
:10442000009407D077FD09D00E94272207FC05D011
:104430003EF4909581959F4F0895709561957F4FBB
:104440000895EE0FFF1F0590F491E02D0994AA1B2B
:10445000BB1B51E107C0AA1FBB1FA617B70710F06F
:10446000A61BB70B881F991F5A95A9F780959095A1
:10447000BC01CD010895FB01DC0104C08D910190C8
:10448000801921F441505040C8F7881B990B0895BA
:10449000F999FECF92BD81BDF89A992780B508950C
:1044A000A8E1B0E042E050E00C947C22262FF9997C
:1044B000FECF92BD81BDF89A019700B4021639F083
:1044C0001FBA20BD0FB6F894FA9AF99A0FBE089554
:1044D0000396272F0E9457220E945622252F0E94C2
:1044E0005722242F0C9457220196272F0E945722DF
:1044F0000C945622DC01CB01FC01F999FECF06C0D9
:10450000F2BDE1BDF89A319600B40D924150504091
:10451000B8F70895F894FFCF85078507B607B60763
:10452000E5074A08E507E5076508F10800090009FD
:10453000DB09DB09E409E409E609E409E409E40923
:10454000DB09DB09EB09E409E409EB09C820F020E9
:10455000D921F020D92123214421D9219B21A72130
:1045600040C8008B012808641E140A321E831BA950
:104570001B881B861BD61B871B0191946697C6342C
:08458000F4F5F6F731333200C7
:00000001FF
